:100000000C942A000C943F000C943F000C943F0089
:100010000C943F000C943F000C943F000C943F0064
:100020000C943F000C943F000C943F000C943F0054
:100030000C943F000C943F000C943F000C943F0044
:100040000C943F000C943F000C943F000C943F0034
:100050000C943F0011241FBECFE5D4E0DEBFCDBF1E
:1000600010E0A0E6B0E0E6E5F2E002C005900D92F7
:10007000AA36B107D9F70E94B7000C9429010C9455
:10008000000017BADA9A8BB38C7F8BBB22EE34E078
:1000900007C0DB9AC9010197F1F78BB3807F8BBB57
:1000A000C799F7CF8FEF87BB0895DB9A82EE94E074
:1000B0000197F1F78BB3807F8BBB08951F93182FA7
:1000C0000E94410018BB8BB3897F8BBBDB9A82EE09
:1000D00094E00197F1F78BB3807F8BBB18BA1F9127
:1000E00008951F93182F0E94410018BBDA98D99ADF
:1000F000DB9A82EE94E00197F1F78BB3807F8BBBA4
:1001000018BA1F910895CF93DF93EC0103C0219695
:100110000E94710088818823D1F7DF91CF910895E3
:100120006158E7E6F0E0E80FF11D8081860F0E943C
:100130005E0008951F938AB38E608ABB84ED90E3BE
:100140000197F1F781E00E945E0084EF91E0019752
:10015000F1F788E30E945E0010E1812F8A95F1F7A4
:100160008EE00E945E001A95F1F71F9108950E949B
:100170009A0080E690E00E94830081E061E00E94A6
:100180009000F7CF0F931F93DF93CF93CDB7DEB7D8
:1001900060970FB6F894DEBF0FBECDBF8E010F5F24
:1001A0001F4FB8014AE050E00E94E400C8010E94DD
:1001B000830060960FB6F894DEBF0FBECDBFCF911F
:1001C000DF911F910F910895FB019F01E894423048
:1001D000C4F04532B4F44A3029F497FB1EF49095EC
:1001E00081959F4F642F77270E941501805D8A3388
:1001F0000CF0895D8193CB010097A1F716F45DE2C5
:1002000051931082C9010C940501DC01FC01672F98
:1002100071917723E1F7329704C07C916D937083DD
:100220006291AE17BF07C8F30895AA1BBB1B51E12B
:1002300007C0AA1FBB1FA617B70710F0A61BB70B56
:10024000881F991F5A95A9F780959095BC01CD01FB
:060250000895F894FFCFB1
:0A02560054657374696E6700004080
:00000001FF
